:060000000A128A110E280D
:10000800FE00030EF7000408F8000A08F9000A12B7
:100018008A11F7280A128A111128F001F101F20158
:10002800F301F40183120313B401B501B601B7015A
:10003800B80183010A128A118D280A30831203132A
:10004800A0000030A1002F08A3002E08A2000A1269
:100058008A1109220A128A11831203132008B00098
:100068003008F00070082E02AE002F08031C2F0382
:10007800AF000A30A6000030A7002F08A3002E0802
:10008800A2006430A0000030A1000A128A110922DF
:100098000A128A11831203132108A9002008A80054
:1000A8000A128A11C3210A128A118312031326081D
:1000B800B0003008F1007108B000B1013008A000AC
:1000C8003108A100F630A200FF30A3000A128A11FD
:1000D8006E220A128A11831203132E082007AE001B
:1000E8002F0803182F0A2107AF006430A60000303C
:1000F800A7002F08A9002E08A8000A128A11C321F8
:100108000A128A11831203132608B0003008F2007D
:1001180008000A128A11B0220A128A110A128A11D8
:10012800DB220A128A110A128A11D0220A128A11B3
:100138000A128A1195220A128A110A128A11C222F7
:100148000A128A11F401831203139F18AC28AD28F0
:10015800B7280F3083120313B200B20BB128B428AA
:10016800831203139F147308B200B3013208AE0060
:100178003308AF000A128A1145220A128A11831223
:1001880003132F08B5002E08B4003508AF00340853
:10019800AE000A128A1121200A128A1172080A1264
:1001A8008A1161210A128A1183120313B2003208DC
:1001B800B80071080A128A1161210A128A11831281
:1001C8000313B2003208B70070080A128A116121BD
:1001D8000A128A1183120313B2003208B600A72844
:1001E8000A128A110E28831203130C1FFC28FD28FB
:1001F8001F291F0CF500750C0F390C3A031D052932
:1002080006290D291E0885001F08C33928389F00B4
:100218001E291F0CF500750C0F390A3A031D152904
:1002280016291E291E08F5007508F3001F08C33992
:1002380030389F000C130B1D22292329582901301F
:10024800F5007508F40703307402031C2C292D29C6
:100258002E29F4010B1164308100452901308900F1
:100268003808803E870058290230890037088700FF
:1002780058290430890036088700582989018701E0
:1002880058297408F500F6017608003A03194D2933
:1002980042297508003A03193229013A0319382905
:1002A800033A03193D29422979088A00780884000D
:1002B800770E8300FE0E7E0E090083120313A20040
:1002C80099293F30A0002008A300C1290630A000CA
:1002D8002008A300C1295B30A0002008A300C12981
:1002E8004F30A0002008A300C1296630A0002008D4
:1002F800A300C1296D30A0002008A300C1297D30CA
:10030800A0002008A300C1290730A0002008A300EE
:10031800C1297F30A0002008A300C1296730A000B0
:100328002008A300C129A301C1292208A000A10116
:100338002108003A0319A12997292008003A03192E
:100348006529013A03196A29033A03196F29013A01
:1003580003197429073A03197929013A03197E29DF
:10036800033A03198329013A031988290F3A031913
:100378008D29013A03199229972923080800831225
:100388000313AB01AC01260827040319CC29CD2996
:10039800042AAD01AD0ADB2901300310A60DA70D13
:1003A800FF3E031DD1290130AA002A08AD07A71F67
:1003B800DE29DF29D02901300310AB0DAC0DFF3E3B
:1003C800031DE02927082902031DEC292608280215
:1003D800031CEF29F029F7292608A8022708031C7F
:1003E800A903A9022B1401300310A70CA60CFF3E89
:1003F800031DF8290130AD02031D032A042ADF2951
:100408002C08A7002B08A600080083120313200855
:1004180021040319102A112A402AA501A50A1F2A16
:1004280001300310A00DA10DFF3E031D152A013058
:10043800A4002408A507A11F222A232A142A210878
:100448002302031D292A20082202031C2C2A2D2AF4
:10045800332A2008A2022108031CA303A3020130A7
:100468000310A10CA00CFF3E031D342A0130A50285
:10047800031D3F2A402A232A2308A1002208A0009E
:100488000800333083120313A6000030A7002F089A
:10049800A1002E08A0006430A2000030A3000A12B8
:1004A8008A116E220A128A11831203132108A900E5
:1004B8002008A8000A128A11C3210A128A1183127D
:1004C80003132708B1002608B0003108AF00300830
:1004D800AE00080083120313A401A501201C752A8D
:1004E800762A7C2A2208A4070318A50A2308A50748
:1004F80001300310A20DA30DFF3E031D7D2A01301C
:100508000310A10CA00CFF3E031D842A200821041F
:10051800031D8F2A902A722A2508A1002408A0000A
:100528000800831203131F141F08C33930389F00B3
:100538001F083F3940389F000F3083120313A00073
:10054800A00BA42AA72A831203139F14831603134C
:100558009F131F129F12080083160317880109169C
:10056800091583160313850187018901061486146A
:100578008312031385018701890108008316031379
:10058800811281110108F83906388100643083121C
:10059800031381000B1108008B170B178B160B1117
:1005A800831603130C17831203130C130800831606
:0E05B80003130F140F088F3960388F000800EE
:04400E00D420FF3F7C
:00000001FF
